{
  "_format": "hh-sol-artifact-1",
  "contractName": "Registry",
  "sourceName": "contracts/Registry.sol",
  "abi": [
    {
      "inputs": [],
      "stateMutability": "nonpayable",
      "type": "constructor"
    },
    {
      "anonymous": false,
      "inputs": [
        {
          "indexed": true,
          "internalType": "address",
          "name": "previousOwner",
          "type": "address"
        },
        {
          "indexed": true,
          "internalType": "address",
          "name": "newOwner",
          "type": "address"
        }
      ],
      "name": "OwnershipTransferred",
      "type": "event"
    },
    {
      "anonymous": false,
      "inputs": [
        {
          "indexed": false,
          "internalType": "string",
          "name": "name",
          "type": "string"
        },
        {
          "indexed": false,
          "internalType": "string",
          "name": "email",
          "type": "string"
        },
        {
          "indexed": false,
          "internalType": "string",
          "name": "chargingstationName",
          "type": "string"
        },
        {
          "indexed": false,
          "internalType": "uint256",
          "name": "holderId",
          "type": "uint256"
        },
        {
          "indexed": false,
          "internalType": "uint256",
          "name": "creditsHeld",
          "type": "uint256"
        },
        {
          "indexed": false,
          "internalType": "uint256",
          "name": "pricepercredit",
          "type": "uint256"
        },
        {
          "indexed": false,
          "internalType": "uint256",
          "name": "creditvalidityperiod",
          "type": "uint256"
        },
        {
          "indexed": false,
          "internalType": "address",
          "name": "_addr",
          "type": "address"
        }
      ],
      "name": "newCreditHolder",
      "type": "event"
    },
    {
      "inputs": [
        {
          "internalType": "uint256",
          "name": "",
          "type": "uint256"
        }
      ],
      "name": "CreditHolders",
      "outputs": [
        {
          "internalType": "string",
          "name": "name",
          "type": "string"
        },
        {
          "internalType": "string",
          "name": "email",
          "type": "string"
        },
        {
          "internalType": "string",
          "name": "geolocation",
          "type": "string"
        },
        {
          "internalType": "uint256",
          "name": "id",
          "type": "uint256"
        },
        {
          "internalType": "uint256",
          "name": "holderId",
          "type": "uint256"
        },
        {
          "internalType": "uint256",
          "name": "creditsHeld",
          "type": "uint256"
        },
        {
          "internalType": "uint256",
          "name": "pricepercredit",
          "type": "uint256"
        },
        {
          "internalType": "uint256",
          "name": "creditvalidityperiod",
          "type": "uint256"
        },
        {
          "internalType": "address",
          "name": "_addr",
          "type": "address"
        }
      ],
      "stateMutability": "view",
      "type": "function"
    },
    {
      "inputs": [],
      "name": "getCreditHolders",
      "outputs": [
        {
          "components": [
            {
              "internalType": "string",
              "name": "name",
              "type": "string"
            },
            {
              "internalType": "string",
              "name": "email",
              "type": "string"
            },
            {
              "internalType": "string",
              "name": "geolocation",
              "type": "string"
            },
            {
              "internalType": "uint256",
              "name": "id",
              "type": "uint256"
            },
            {
              "internalType": "uint256",
              "name": "holderId",
              "type": "uint256"
            },
            {
              "internalType": "uint256",
              "name": "creditsHeld",
              "type": "uint256"
            },
            {
              "internalType": "uint256",
              "name": "pricepercredit",
              "type": "uint256"
            },
            {
              "internalType": "uint256",
              "name": "creditvalidityperiod",
              "type": "uint256"
            },
            {
              "internalType": "address",
              "name": "_addr",
              "type": "address"
            }
          ],
          "internalType": "struct Registry.CarbonCreditHolder[]",
          "name": "",
          "type": "tuple[]"
        }
      ],
      "stateMutability": "view",
      "type": "function"
    },
    {
      "inputs": [],
      "name": "getTotalCreditHolders",
      "outputs": [
        {
          "internalType": "uint256",
          "name": "",
          "type": "uint256"
        }
      ],
      "stateMutability": "view",
      "type": "function"
    },
    {
      "inputs": [],
      "name": "getVerifiers",
      "outputs": [
        {
          "components": [
            {
              "internalType": "string",
              "name": "name",
              "type": "string"
            },
            {
              "internalType": "string",
              "name": "email",
              "type": "string"
            },
            {
              "internalType": "string",
              "name": "Country",
              "type": "string"
            },
            {
              "internalType": "uint256",
              "name": "reg_no",
              "type": "uint256"
            },
            {
              "internalType": "uint256",
              "name": "license_no",
              "type": "uint256"
            },
            {
              "internalType": "address",
              "name": "_addr",
              "type": "address"
            },
            {
              "internalType": "bool",
              "name": "isExist",
              "type": "bool"
            }
          ],
          "internalType": "struct Registry.verifier[]",
          "name": "",
          "type": "tuple[]"
        }
      ],
      "stateMutability": "view",
      "type": "function"
    },
    {
      "inputs": [],
      "name": "owner",
      "outputs": [
        {
          "internalType": "address",
          "name": "",
          "type": "address"
        }
      ],
      "stateMutability": "view",
      "type": "function"
    },
    {
      "inputs": [
        {
          "internalType": "string",
          "name": "name",
          "type": "string"
        },
        {
          "internalType": "string",
          "name": "email",
          "type": "string"
        },
        {
          "internalType": "string",
          "name": "chargingstationName",
          "type": "string"
        },
        {
          "internalType": "uint256",
          "name": "holderId",
          "type": "uint256"
        },
        {
          "internalType": "uint256",
          "name": "creditsHeld",
          "type": "uint256"
        },
        {
          "internalType": "uint256",
          "name": "pricepercredit",
          "type": "uint256"
        },
        {
          "internalType": "uint256",
          "name": "creditvalidityperiod",
          "type": "uint256"
        }
      ],
      "name": "registerCreditHolder",
      "outputs": [],
      "stateMutability": "nonpayable",
      "type": "function"
    },
    {
      "inputs": [
        {
          "internalType": "string",
          "name": "name",
          "type": "string"
        },
        {
          "internalType": "string",
          "name": "email",
          "type": "string"
        },
        {
          "internalType": "string",
          "name": "Country",
          "type": "string"
        },
        {
          "internalType": "uint256",
          "name": "reg_no",
          "type": "uint256"
        },
        {
          "internalType": "uint256",
          "name": "license_no",
          "type": "uint256"
        }
      ],
      "name": "registerVerifiers",
      "outputs": [],
      "stateMutability": "nonpayable",
      "type": "function"
    },
    {
      "inputs": [],
      "name": "renounceOwnership",
      "outputs": [],
      "stateMutability": "nonpayable",
      "type": "function"
    },
    {
      "inputs": [
        {
          "internalType": "address",
          "name": "",
          "type": "address"
        }
      ],
      "name": "totalCreditHolders",
      "outputs": [
        {
          "internalType": "uint256",
          "name": "",
          "type": "uint256"
        }
      ],
      "stateMutability": "view",
      "type": "function"
    },
    {
      "inputs": [
        {
          "internalType": "address",
          "name": "newOwner",
          "type": "address"
        }
      ],
      "name": "transferOwnership",
      "outputs": [],
      "stateMutability": "nonpayable",
      "type": "function"
    },
    {
      "inputs": [
        {
          "internalType": "uint256",
          "name": "",
          "type": "uint256"
        }
      ],
      "name": "verifiers",
      "outputs": [
        {
          "internalType": "string",
          "name": "name",
          "type": "string"
        },
        {
          "internalType": "string",
          "name": "email",
          "type": "string"
        },
        {
          "internalType": "string",
          "name": "Country",
          "type": "string"
        },
        {
          "internalType": "uint256",
          "name": "reg_no",
          "type": "uint256"
        },
        {
          "internalType": "uint256",
          "name": "license_no",
          "type": "uint256"
        },
        {
          "internalType": "address",
          "name": "_addr",
          "type": "address"
        },
        {
          "internalType": "bool",
          "name": "isExist",
          "type": "bool"
        }
      ],
      "stateMutability": "view",
      "type": "function"
    }
  ],
  "bytecode": "0x608060405260006003556000600455600060055534801561001f57600080fd5b5061003c61003161008e60201b60201c565b61009660201b60201c565b6000600181905550600a600260003073ffffffffffffffffffffffffffffffffffffffff1673ffffffffffffffffffffffffffffffffffffffff1681526020019081526020016000208190555061015a565b600033905090565b60008060009054906101000a900473ffffffffffffffffffffffffffffffffffffffff169050816000806101000a81548173ffffffffffffffffffffffffffffffffffffffff021916908373ffffffffffffffffffffffffffffffffffffffff1602179055508173ffffffffffffffffffffffffffffffffffffffff168173ffffffffffffffffffffffffffffffffffffffff167f8be0079c531659141344cd1fd0a4f28419497f9722a3daafe3b4186f6b6457e060405160405180910390a35050565b612219806200016a6000396000f3fe608060405234801561001057600080fd5b50600436106100a95760003560e01c80639668071011610071578063966807101461015a5780639ea4e7c214610178578063a935e76614610194578063ac1eff68146101b2578063b2df7349146101e8578063f2fde38b14610206576100a9565b8063377b9999146100ae57806357682210146100ca578063715018a6146100fa57806375348d8e146101045780638da5cb5b1461013c575b600080fd5b6100c860048036038101906100c39190611415565b610222565b005b6100e460048036038101906100df9190611569565b6103b4565b6040516100f191906115a5565b60405180910390f35b6101026103cc565b005b61011e600480360381019061011991906115c0565b6103e0565b6040516101339998979695949392919061167b565b60405180910390f35b6101446105e6565b604051610151919061171d565b60405180910390f35b61016261060f565b60405161016f91906115a5565b60405180910390f35b610192600480360381019061018d9190611738565b610656565b005b61019c610800565b6040516101a991906119f6565b60405180910390f35b6101cc60048036038101906101c791906115c0565b610afb565b6040516101df9796959493929190611a27565b60405180910390f35b6101f0610d02565b6040516101fd9190611c40565b60405180910390f35b610220600480360381019061021b9190611569565b611001565b005b6003600081548092919061023590611c91565b919050555060405180610120016040528088815260200187815260200186815260200160035481526020018581526020018481526020018381526020018281526020013373ffffffffffffffffffffffffffffffffffffffff1681525060066000600354815260200190815260200160002060008201518160000190816102bc9190611ee5565b5060208201518160010190816102d29190611ee5565b5060408201518160020190816102e89190611ee5565b50606082015181600301556080820151816004015560a0820151816005015560c0820151816006015560e082015181600701556101008201518160080160006101000a81548173ffffffffffffffffffffffffffffffffffffffff021916908373ffffffffffffffffffffffffffffffffffffffff1602179055509050507f318ca470462c99d292ca3790f896cd32a9e7ec14fcb8a2491a7fac6950b90f2887878787878787336040516103a3989796959493929190611fb7565b60405180910390a150505050505050565b60026020528060005260406000206000915090505481565b6103d4611084565b6103de6000611102565b565b600660205280600052604060002060009150905080600001805461040390611d08565b80601f016020809104026020016040519081016040528092919081815260200182805461042f90611d08565b801561047c5780601f106104515761010080835404028352916020019161047c565b820191906000526020600020905b81548152906001019060200180831161045f57829003601f168201915b50505050509080600101805461049190611d08565b80601f01602080910402602001604051908101604052809291908181526020018280546104bd90611d08565b801561050a5780601f106104df5761010080835404028352916020019161050a565b820191906000526020600020905b8154815290600101906020018083116104ed57829003601f168201915b50505050509080600201805461051f90611d08565b80601f016020809104026020016040519081016040528092919081815260200182805461054b90611d08565b80156105985780601f1061056d57610100808354040283529160200191610598565b820191906000526020600020905b81548152906001019060200180831161057b57829003601f168201915b5050505050908060030154908060040154908060050154908060060154908060070154908060080160009054906101000a900473ffffffffffffffffffffffffffffffffffffffff16905089565b60008060009054906101000a900473ffffffffffffffffffffffffffffffffffffffff16905090565b6000600260003073ffffffffffffffffffffffffffffffffffffffff1673ffffffffffffffffffffffffffffffffffffffff16815260200190815260200160002054905090565b6004600081548092919061066990611c91565b9190505550600015156007600084815260200190815260200160002060050160149054906101000a900460ff161515146106d8576040517f08c379a00000000000000000000000000000000000000000000000000000000081526004016106cf90612096565b60405180910390fd5b6040518060e001604052808681526020018581526020018481526020018381526020018281526020013373ffffffffffffffffffffffffffffffffffffffff16815260200160011515815250600760006004548152602001908152602001600020600082015181600001908161074e9190611ee5565b5060208201518160010190816107649190611ee5565b50604082015181600201908161077a9190611ee5565b50606082015181600301556080820151816004015560a08201518160050160006101000a81548173ffffffffffffffffffffffffffffffffffffffff021916908373ffffffffffffffffffffffffffffffffffffffff16021790555060c08201518160050160146101000a81548160ff0219169083151502179055509050505050505050565b6060600060045467ffffffffffffffff8111156108205761081f6112b4565b5b60405190808252806020026020018201604052801561085957816020015b6108466111ce565b81526020019060019003908161083e5790505b50905060005b600454811015610af357600760008281526020019081526020016000206040518060e001604052908160008201805461089790611d08565b80601f01602080910402602001604051908101604052809291908181526020018280546108c390611d08565b80156109105780601f106108e557610100808354040283529160200191610910565b820191906000526020600020905b8154815290600101906020018083116108f357829003601f168201915b5050505050815260200160018201805461092990611d08565b80601f016020809104026020016040519081016040528092919081815260200182805461095590611d08565b80156109a25780601f10610977576101008083540402835291602001916109a2565b820191906000526020600020905b81548152906001019060200180831161098557829003601f168201915b505050505081526020016002820180546109bb90611d08565b80601f01602080910402602001604051908101604052809291908181526020018280546109e790611d08565b8015610a345780601f10610a0957610100808354040283529160200191610a34565b820191906000526020600020905b815481529060010190602001808311610a1757829003601f168201915b5050505050815260200160038201548152602001600482015481526020016005820160009054906101000a900473ffffffffffffffffffffffffffffffffffffffff1673ffffffffffffffffffffffffffffffffffffffff1673ffffffffffffffffffffffffffffffffffffffff1681526020016005820160149054906101000a900460ff161515151581525050828281518110610ad557610ad46120b6565b5b60200260200101819052508080610aeb90611c91565b91505061085f565b508091505090565b6007602052806000526040600020600091509050806000018054610b1e90611d08565b80601f0160208091040260200160405190810160405280929190818152602001828054610b4a90611d08565b8015610b975780601f10610b6c57610100808354040283529160200191610b97565b820191906000526020600020905b815481529060010190602001808311610b7a57829003601f168201915b505050505090806001018054610bac90611d08565b80601f0160208091040260200160405190810160405280929190818152602001828054610bd890611d08565b8015610c255780601f10610bfa57610100808354040283529160200191610c25565b820191906000526020600020905b815481529060010190602001808311610c0857829003601f168201915b505050505090806002018054610c3a90611d08565b80601f0160208091040260200160405190810160405280929190818152602001828054610c6690611d08565b8015610cb35780601f10610c8857610100808354040283529160200191610cb3565b820191906000526020600020905b815481529060010190602001808311610c9657829003601f168201915b5050505050908060030154908060040154908060050160009054906101000a900473ffffffffffffffffffffffffffffffffffffffff16908060050160149054906101000a900460ff16905087565b6060600060045467ffffffffffffffff811115610d2257610d216112b4565b5b604051908082528060200260200182016040528015610d5b57816020015b610d48611223565b815260200190600190039081610d405790505b50905060005b600354811015610ff9576006600082815260200190815260200160002060405180610120016040529081600082018054610d9a90611d08565b80601f0160208091040260200160405190810160405280929190818152602001828054610dc690611d08565b8015610e135780601f10610de857610100808354040283529160200191610e13565b820191906000526020600020905b815481529060010190602001808311610df657829003601f168201915b50505050508152602001600182018054610e2c90611d08565b80601f0160208091040260200160405190810160405280929190818152602001828054610e5890611d08565b8015610ea55780601f10610e7a57610100808354040283529160200191610ea5565b820191906000526020600020905b815481529060010190602001808311610e8857829003601f168201915b50505050508152602001600282018054610ebe90611d08565b80601f0160208091040260200160405190810160405280929190818152602001828054610eea90611d08565b8015610f375780601f10610f0c57610100808354040283529160200191610f37565b820191906000526020600020905b815481529060010190602001808311610f1a57829003601f168201915b5050505050815260200160038201548152602001600482015481526020016005820154815260200160068201548152602001600782015481526020016008820160009054906101000a900473ffffffffffffffffffffffffffffffffffffffff1673ffffffffffffffffffffffffffffffffffffffff1673ffffffffffffffffffffffffffffffffffffffff1681525050828281518110610fdb57610fda6120b6565b5b60200260200101819052508080610ff190611c91565b915050610d61565b508091505090565b611009611084565b600073ffffffffffffffffffffffffffffffffffffffff168173ffffffffffffffffffffffffffffffffffffffff1603611078576040517f08c379a000000000000000000000000000000000000000000000000000000000815260040161106f90612157565b60405180910390fd5b61108181611102565b50565b61108c6111c6565b73ffffffffffffffffffffffffffffffffffffffff166110aa6105e6565b73ffffffffffffffffffffffffffffffffffffffff1614611100576040517f08c379a00000000000000000000000000000000000000000000000000000000081526004016110f7906121c3565b60405180910390fd5b565b60008060009054906101000a900473ffffffffffffffffffffffffffffffffffffffff169050816000806101000a81548173ffffffffffffffffffffffffffffffffffffffff021916908373ffffffffffffffffffffffffffffffffffffffff1602179055508173ffffffffffffffffffffffffffffffffffffffff168173ffffffffffffffffffffffffffffffffffffffff167f8be0079c531659141344cd1fd0a4f28419497f9722a3daafe3b4186f6b6457e060405160405180910390a35050565b600033905090565b6040518060e001604052806060815260200160608152602001606081526020016000815260200160008152602001600073ffffffffffffffffffffffffffffffffffffffff1681526020016000151581525090565b6040518061012001604052806060815260200160608152602001606081526020016000815260200160008152602001600081526020016000815260200160008152602001600073ffffffffffffffffffffffffffffffffffffffff1681525090565b6000604051905090565b600080fd5b600080fd5b600080fd5b600080fd5b6000601f19601f8301169050919050565b7f4e487b7100000000000000000000000000000000000000000000000000000000600052604160045260246000fd5b6112ec826112a3565b810181811067ffffffffffffffff8211171561130b5761130a6112b4565b5b80604052505050565b600061131e611285565b905061132a82826112e3565b919050565b600067ffffffffffffffff82111561134a576113496112b4565b5b611353826112a3565b9050602081019050919050565b82818337600083830152505050565b600061138261137d8461132f565b611314565b90508281526020810184848401111561139e5761139d61129e565b5b6113a9848285611360565b509392505050565b600082601f8301126113c6576113c5611299565b5b81356113d684826020860161136f565b91505092915050565b6000819050919050565b6113f2816113df565b81146113fd57600080fd5b50565b60008135905061140f816113e9565b92915050565b600080600080600080600060e0888a0312156114345761143361128f565b5b600088013567ffffffffffffffff81111561145257611451611294565b5b61145e8a828b016113b1565b975050602088013567ffffffffffffffff81111561147f5761147e611294565b5b61148b8a828b016113b1565b965050604088013567ffffffffffffffff8111156114ac576114ab611294565b5b6114b88a828b016113b1565b95505060606114c98a828b01611400565b94505060806114da8a828b01611400565b93505060a06114eb8a828b01611400565b92505060c06114fc8a828b01611400565b91505092959891949750929550565b600073ffffffffffffffffffffffffffffffffffffffff82169050919050565b60006115368261150b565b9050919050565b6115468161152b565b811461155157600080fd5b50565b6000813590506115638161153d565b92915050565b60006020828403121561157f5761157e61128f565b5b600061158d84828501611554565b91505092915050565b61159f816113df565b82525050565b60006020820190506115ba6000830184611596565b92915050565b6000602082840312156115d6576115d561128f565b5b60006115e484828501611400565b91505092915050565b600081519050919050565b600082825260208201905092915050565b60005b8381101561162757808201518184015260208101905061160c565b60008484015250505050565b600061163e826115ed565b61164881856115f8565b9350611658818560208601611609565b611661816112a3565b840191505092915050565b6116758161152b565b82525050565b6000610120820190508181036000830152611696818c611633565b905081810360208301526116aa818b611633565b905081810360408301526116be818a611633565b90506116cd6060830189611596565b6116da6080830188611596565b6116e760a0830187611596565b6116f460c0830186611596565b61170160e0830185611596565b61170f61010083018461166c565b9a9950505050505050505050565b6000602082019050611732600083018461166c565b92915050565b600080600080600060a086880312156117545761175361128f565b5b600086013567ffffffffffffffff81111561177257611771611294565b5b61177e888289016113b1565b955050602086013567ffffffffffffffff81111561179f5761179e611294565b5b6117ab888289016113b1565b945050604086013567ffffffffffffffff8111156117cc576117cb611294565b5b6117d8888289016113b1565b93505060606117e988828901611400565b92505060806117fa88828901611400565b9150509295509295909350565b600081519050919050565b600082825260208201905092915050565b6000819050602082019050919050565b600082825260208201905092915050565b600061184f826115ed565b6118598185611833565b9350611869818560208601611609565b611872816112a3565b840191505092915050565b611886816113df565b82525050565b6118958161152b565b82525050565b60008115159050919050565b6118b08161189b565b82525050565b600060e08301600083015184820360008601526118d38282611844565b915050602083015184820360208601526118ed8282611844565b915050604083015184820360408601526119078282611844565b915050606083015161191c606086018261187d565b50608083015161192f608086018261187d565b5060a083015161194260a086018261188c565b5060c083015161195560c08601826118a7565b508091505092915050565b600061196c83836118b6565b905092915050565b6000602082019050919050565b600061198c82611807565b6119968185611812565b9350836020820285016119a885611823565b8060005b858110156119e457848403895281516119c58582611960565b94506119d083611974565b925060208a019950506001810190506119ac565b50829750879550505050505092915050565b60006020820190508181036000830152611a108184611981565b905092915050565b611a218161189b565b82525050565b600060e0820190508181036000830152611a41818a611633565b90508181036020830152611a558189611633565b90508181036040830152611a698188611633565b9050611a786060830187611596565b611a856080830186611596565b611a9260a083018561166c565b611a9f60c0830184611a18565b98975050505050505050565b600081519050919050565b600082825260208201905092915050565b6000819050602082019050919050565b6000610120830160008301518482036000860152611af58282611844565b91505060208301518482036020860152611b0f8282611844565b91505060408301518482036040860152611b298282611844565b9150506060830151611b3e606086018261187d565b506080830151611b51608086018261187d565b5060a0830151611b6460a086018261187d565b5060c0830151611b7760c086018261187d565b5060e0830151611b8a60e086018261187d565b50610100830151611b9f61010086018261188c565b508091505092915050565b6000611bb68383611ad7565b905092915050565b6000602082019050919050565b6000611bd682611aab565b611be08185611ab6565b935083602082028501611bf285611ac7565b8060005b85811015611c2e5784840389528151611c0f8582611baa565b9450611c1a83611bbe565b925060208a01995050600181019050611bf6565b50829750879550505050505092915050565b60006020820190508181036000830152611c5a8184611bcb565b905092915050565b7f4e487b7100000000000000000000000000000000000000000000000000000000600052601160045260246000fd5b6000611c9c826113df565b91507fffffffffffffffffffffffffffffffffffffffffffffffffffffffffffffffff8203611cce57611ccd611c62565b5b600182019050919050565b7f4e487b7100000000000000000000000000000000000000000000000000000000600052602260045260246000fd5b60006002820490506001821680611d2057607f821691505b602082108103611d3357611d32611cd9565b5b50919050565b60008190508160005260206000209050919050565b60006020601f8301049050919050565b600082821b905092915050565b600060088302611d9b7fffffffffffffffffffffffffffffffffffffffffffffffffffffffffffffffff82611d5e565b611da58683611d5e565b95508019841693508086168417925050509392505050565b6000819050919050565b6000611de2611ddd611dd8846113df565b611dbd565b6113df565b9050919050565b6000819050919050565b611dfc83611dc7565b611e10611e0882611de9565b848454611d6b565b825550505050565b600090565b611e25611e18565b611e30818484611df3565b505050565b5b81811015611e5457611e49600082611e1d565b600181019050611e36565b5050565b601f821115611e9957611e6a81611d39565b611e7384611d4e565b81016020851015611e82578190505b611e96611e8e85611d4e565b830182611e35565b50505b505050565b600082821c905092915050565b6000611ebc60001984600802611e9e565b1980831691505092915050565b6000611ed58383611eab565b9150826002028217905092915050565b611eee826115ed565b67ffffffffffffffff811115611f0757611f066112b4565b5b611f118254611d08565b611f1c828285611e58565b600060209050601f831160018114611f4f5760008415611f3d578287015190505b611f478582611ec9565b865550611faf565b601f198416611f5d86611d39565b60005b82811015611f8557848901518255600182019150602085019450602081019050611f60565b86831015611fa25784890151611f9e601f891682611eab565b8355505b6001600288020188555050505b505050505050565b6000610100820190508181036000830152611fd2818b611633565b90508181036020830152611fe6818a611633565b90508181036040830152611ffa8189611633565b90506120096060830188611596565b6120166080830187611596565b61202360a0830186611596565b61203060c0830185611596565b61203d60e083018461166c565b9998505050505050505050565b7f76616c696461746f7220616c7265616479207265676973746572656400000000600082015250565b6000612080601c836115f8565b915061208b8261204a565b602082019050919050565b600060208201905081810360008301526120af81612073565b9050919050565b7f4e487b7100000000000000000000000000000000000000000000000000000000600052603260045260246000fd5b7f4f776e61626c653a206e6577206f776e657220697320746865207a65726f206160008201527f6464726573730000000000000000000000000000000000000000000000000000602082015250565b60006121416026836115f8565b915061214c826120e5565b604082019050919050565b6000602082019050818103600083015261217081612134565b9050919050565b7f4f776e61626c653a2063616c6c6572206973206e6f7420746865206f776e6572600082015250565b60006121ad6020836115f8565b91506121b882612177565b602082019050919050565b600060208201905081810360008301526121dc816121a0565b905091905056fea2646970667358221220b167573dd6f940e7f440e8bcdb5ba3c33527e3cae28ff6c8706f920de115786d64736f6c63430008110033",
  "linkReferences": {},
  "deployedLinkReferences": {}
}