{
  "_format": "hh-sol-artifact-1",
  "contractName": "Registry",
  "sourceName": "contracts/Registry.sol",
  "abi": [
    {
      "inputs": [],
      "stateMutability": "nonpayable",
      "type": "constructor"
    },
    {
      "anonymous": false,
      "inputs": [
        {
          "indexed": true,
          "internalType": "address",
          "name": "owner",
          "type": "address"
        },
        {
          "indexed": true,
          "internalType": "address",
          "name": "approved",
          "type": "address"
        },
        {
          "indexed": true,
          "internalType": "uint256",
          "name": "tokenId",
          "type": "uint256"
        }
      ],
      "name": "Approval",
      "type": "event"
    },
    {
      "anonymous": false,
      "inputs": [
        {
          "indexed": true,
          "internalType": "address",
          "name": "owner",
          "type": "address"
        },
        {
          "indexed": true,
          "internalType": "address",
          "name": "operator",
          "type": "address"
        },
        {
          "indexed": false,
          "internalType": "bool",
          "name": "approved",
          "type": "bool"
        }
      ],
      "name": "ApprovalForAll",
      "type": "event"
    },
    {
      "anonymous": false,
      "inputs": [
        {
          "indexed": true,
          "internalType": "address",
          "name": "previousOwner",
          "type": "address"
        },
        {
          "indexed": true,
          "internalType": "address",
          "name": "newOwner",
          "type": "address"
        }
      ],
      "name": "OwnershipTransferred",
      "type": "event"
    },
    {
      "anonymous": false,
      "inputs": [
        {
          "indexed": true,
          "internalType": "address",
          "name": "from",
          "type": "address"
        },
        {
          "indexed": true,
          "internalType": "address",
          "name": "to",
          "type": "address"
        },
        {
          "indexed": true,
          "internalType": "uint256",
          "name": "tokenId",
          "type": "uint256"
        }
      ],
      "name": "Transfer",
      "type": "event"
    },
    {
      "anonymous": false,
      "inputs": [
        {
          "indexed": false,
          "internalType": "string",
          "name": "name",
          "type": "string"
        },
        {
          "indexed": false,
          "internalType": "string",
          "name": "email",
          "type": "string"
        },
        {
          "indexed": false,
          "internalType": "string",
          "name": "chargingstationName",
          "type": "string"
        },
        {
          "indexed": false,
          "internalType": "uint256",
          "name": "holderId",
          "type": "uint256"
        },
        {
          "indexed": false,
          "internalType": "uint256",
          "name": "creditsHeld",
          "type": "uint256"
        },
        {
          "indexed": false,
          "internalType": "uint256",
          "name": "pricepercredit",
          "type": "uint256"
        },
        {
          "indexed": false,
          "internalType": "uint256",
          "name": "creditvalidityperiod",
          "type": "uint256"
        },
        {
          "indexed": false,
          "internalType": "address",
          "name": "_addr",
          "type": "address"
        }
      ],
      "name": "newCreditHolder",
      "type": "event"
    },
    {
      "inputs": [
        {
          "internalType": "uint256",
          "name": "",
          "type": "uint256"
        }
      ],
      "name": "CreditHolders",
      "outputs": [
        {
          "internalType": "string",
          "name": "name",
          "type": "string"
        },
        {
          "internalType": "string",
          "name": "email",
          "type": "string"
        },
        {
          "internalType": "string",
          "name": "geolocation",
          "type": "string"
        },
        {
          "internalType": "uint256",
          "name": "id",
          "type": "uint256"
        },
        {
          "internalType": "uint256",
          "name": "holderId",
          "type": "uint256"
        },
        {
          "internalType": "uint256",
          "name": "creditsHeld",
          "type": "uint256"
        },
        {
          "internalType": "uint256",
          "name": "pricepercredit",
          "type": "uint256"
        },
        {
          "internalType": "uint256",
          "name": "creditvalidityperiod",
          "type": "uint256"
        },
        {
          "internalType": "address",
          "name": "_addr",
          "type": "address"
        }
      ],
      "stateMutability": "view",
      "type": "function"
    },
    {
      "inputs": [
        {
          "internalType": "address",
          "name": "to",
          "type": "address"
        },
        {
          "internalType": "uint256",
          "name": "tokenId",
          "type": "uint256"
        }
      ],
      "name": "approve",
      "outputs": [],
      "stateMutability": "nonpayable",
      "type": "function"
    },
    {
      "inputs": [
        {
          "internalType": "address",
          "name": "owner",
          "type": "address"
        }
      ],
      "name": "balanceOf",
      "outputs": [
        {
          "internalType": "uint256",
          "name": "",
          "type": "uint256"
        }
      ],
      "stateMutability": "view",
      "type": "function"
    },
    {
      "inputs": [
        {
          "internalType": "uint256",
          "name": "tokenId",
          "type": "uint256"
        }
      ],
      "name": "getApproved",
      "outputs": [
        {
          "internalType": "address",
          "name": "",
          "type": "address"
        }
      ],
      "stateMutability": "view",
      "type": "function"
    },
    {
      "inputs": [],
      "name": "getCreditHolders",
      "outputs": [
        {
          "components": [
            {
              "internalType": "string",
              "name": "name",
              "type": "string"
            },
            {
              "internalType": "string",
              "name": "email",
              "type": "string"
            },
            {
              "internalType": "string",
              "name": "geolocation",
              "type": "string"
            },
            {
              "internalType": "uint256",
              "name": "id",
              "type": "uint256"
            },
            {
              "internalType": "uint256",
              "name": "holderId",
              "type": "uint256"
            },
            {
              "internalType": "uint256",
              "name": "creditsHeld",
              "type": "uint256"
            },
            {
              "internalType": "uint256",
              "name": "pricepercredit",
              "type": "uint256"
            },
            {
              "internalType": "uint256",
              "name": "creditvalidityperiod",
              "type": "uint256"
            },
            {
              "internalType": "address",
              "name": "_addr",
              "type": "address"
            }
          ],
          "internalType": "struct Registry.CarbonCreditHolder[]",
          "name": "",
          "type": "tuple[]"
        }
      ],
      "stateMutability": "view",
      "type": "function"
    },
    {
      "inputs": [],
      "name": "getTotalCreditHolders",
      "outputs": [
        {
          "internalType": "uint256",
          "name": "",
          "type": "uint256"
        }
      ],
      "stateMutability": "view",
      "type": "function"
    },
    {
      "inputs": [],
      "name": "getVerifiers",
      "outputs": [
        {
          "components": [
            {
              "internalType": "string",
              "name": "name",
              "type": "string"
            },
            {
              "internalType": "string",
              "name": "email",
              "type": "string"
            },
            {
              "internalType": "string",
              "name": "Country",
              "type": "string"
            },
            {
              "internalType": "uint256",
              "name": "reg_no",
              "type": "uint256"
            },
            {
              "internalType": "uint256",
              "name": "license_no",
              "type": "uint256"
            },
            {
              "internalType": "address",
              "name": "_addr",
              "type": "address"
            },
            {
              "internalType": "bool",
              "name": "isExist",
              "type": "bool"
            }
          ],
          "internalType": "struct Registry.verifier[]",
          "name": "",
          "type": "tuple[]"
        }
      ],
      "stateMutability": "view",
      "type": "function"
    },
    {
      "inputs": [
        {
          "internalType": "address",
          "name": "owner",
          "type": "address"
        },
        {
          "internalType": "address",
          "name": "operator",
          "type": "address"
        }
      ],
      "name": "isApprovedForAll",
      "outputs": [
        {
          "internalType": "bool",
          "name": "",
          "type": "bool"
        }
      ],
      "stateMutability": "view",
      "type": "function"
    },
    {
      "inputs": [
        {
          "internalType": "address",
          "name": "_holder",
          "type": "address"
        }
      ],
      "name": "mintNFT",
      "outputs": [
        {
          "internalType": "uint256",
          "name": "",
          "type": "uint256"
        }
      ],
      "stateMutability": "nonpayable",
      "type": "function"
    },
    {
      "inputs": [],
      "name": "name",
      "outputs": [
        {
          "internalType": "string",
          "name": "",
          "type": "string"
        }
      ],
      "stateMutability": "view",
      "type": "function"
    },
    {
      "inputs": [],
      "name": "owner",
      "outputs": [
        {
          "internalType": "address",
          "name": "",
          "type": "address"
        }
      ],
      "stateMutability": "view",
      "type": "function"
    },
    {
      "inputs": [
        {
          "internalType": "uint256",
          "name": "tokenId",
          "type": "uint256"
        }
      ],
      "name": "ownerOf",
      "outputs": [
        {
          "internalType": "address",
          "name": "",
          "type": "address"
        }
      ],
      "stateMutability": "view",
      "type": "function"
    },
    {
      "inputs": [
        {
          "internalType": "string",
          "name": "name",
          "type": "string"
        },
        {
          "internalType": "string",
          "name": "email",
          "type": "string"
        },
        {
          "internalType": "string",
          "name": "chargingstationName",
          "type": "string"
        },
        {
          "internalType": "uint256",
          "name": "holderId",
          "type": "uint256"
        },
        {
          "internalType": "uint256",
          "name": "creditsHeld",
          "type": "uint256"
        },
        {
          "internalType": "uint256",
          "name": "pricepercredit",
          "type": "uint256"
        },
        {
          "internalType": "uint256",
          "name": "creditvalidityperiod",
          "type": "uint256"
        }
      ],
      "name": "registerCreditHolder",
      "outputs": [],
      "stateMutability": "nonpayable",
      "type": "function"
    },
    {
      "inputs": [
        {
          "internalType": "string",
          "name": "name",
          "type": "string"
        },
        {
          "internalType": "string",
          "name": "email",
          "type": "string"
        },
        {
          "internalType": "string",
          "name": "Country",
          "type": "string"
        },
        {
          "internalType": "uint256",
          "name": "reg_no",
          "type": "uint256"
        },
        {
          "internalType": "uint256",
          "name": "license_no",
          "type": "uint256"
        }
      ],
      "name": "registerVerifiers",
      "outputs": [],
      "stateMutability": "nonpayable",
      "type": "function"
    },
    {
      "inputs": [],
      "name": "renounceOwnership",
      "outputs": [],
      "stateMutability": "nonpayable",
      "type": "function"
    },
    {
      "inputs": [
        {
          "internalType": "address",
          "name": "from",
          "type": "address"
        },
        {
          "internalType": "address",
          "name": "to",
          "type": "address"
        },
        {
          "internalType": "uint256",
          "name": "tokenId",
          "type": "uint256"
        }
      ],
      "name": "safeTransferFrom",
      "outputs": [],
      "stateMutability": "nonpayable",
      "type": "function"
    },
    {
      "inputs": [
        {
          "internalType": "address",
          "name": "from",
          "type": "address"
        },
        {
          "internalType": "address",
          "name": "to",
          "type": "address"
        },
        {
          "internalType": "uint256",
          "name": "tokenId",
          "type": "uint256"
        },
        {
          "internalType": "bytes",
          "name": "data",
          "type": "bytes"
        }
      ],
      "name": "safeTransferFrom",
      "outputs": [],
      "stateMutability": "nonpayable",
      "type": "function"
    },
    {
      "inputs": [
        {
          "internalType": "address",
          "name": "operator",
          "type": "address"
        },
        {
          "internalType": "bool",
          "name": "approved",
          "type": "bool"
        }
      ],
      "name": "setApprovalForAll",
      "outputs": [],
      "stateMutability": "nonpayable",
      "type": "function"
    },
    {
      "inputs": [
        {
          "internalType": "bytes4",
          "name": "interfaceId",
          "type": "bytes4"
        }
      ],
      "name": "supportsInterface",
      "outputs": [
        {
          "internalType": "bool",
          "name": "",
          "type": "bool"
        }
      ],
      "stateMutability": "view",
      "type": "function"
    },
    {
      "inputs": [],
      "name": "symbol",
      "outputs": [
        {
          "internalType": "string",
          "name": "",
          "type": "string"
        }
      ],
      "stateMutability": "view",
      "type": "function"
    },
    {
      "inputs": [
        {
          "internalType": "uint256",
          "name": "tokenId",
          "type": "uint256"
        }
      ],
      "name": "tokenURI",
      "outputs": [
        {
          "internalType": "string",
          "name": "",
          "type": "string"
        }
      ],
      "stateMutability": "view",
      "type": "function"
    },
    {
      "inputs": [
        {
          "internalType": "address",
          "name": "",
          "type": "address"
        }
      ],
      "name": "totalCreditHolders",
      "outputs": [
        {
          "internalType": "uint256",
          "name": "",
          "type": "uint256"
        }
      ],
      "stateMutability": "view",
      "type": "function"
    },
    {
      "inputs": [
        {
          "internalType": "address",
          "name": "from",
          "type": "address"
        },
        {
          "internalType": "address",
          "name": "to",
          "type": "address"
        },
        {
          "internalType": "uint256",
          "name": "tokenId",
          "type": "uint256"
        }
      ],
      "name": "transferFrom",
      "outputs": [],
      "stateMutability": "nonpayable",
      "type": "function"
    },
    {
      "inputs": [
        {
          "internalType": "address",
          "name": "newOwner",
          "type": "address"
        }
      ],
      "name": "transferOwnership",
      "outputs": [],
      "stateMutability": "nonpayable",
      "type": "function"
    },
    {
      "inputs": [
        {
          "internalType": "uint256",
          "name": "",
          "type": "uint256"
        }
      ],
      "name": "verifiers",
      "outputs": [
        {
          "internalType": "string",
          "name": "name",
          "type": "string"
        },
        {
          "internalType": "string",
          "name": "email",
          "type": "string"
        },
        {
          "internalType": "string",
          "name": "Country",
          "type": "string"
        },
        {
          "internalType": "uint256",
          "name": "reg_no",
          "type": "uint256"
        },
        {
          "internalType": "uint256",
          "name": "license_no",
          "type": "uint256"
        },
        {
          "internalType": "address",
          "name": "_addr",
          "type": "address"
        },
        {
          "internalType": "bool",
          "name": "isExist",
          "type": "bool"
        }
      ],
      "stateMutability": "view",
      "type": "function"
    }
  ],
  "bytecode": "0x60806040526000600a556000600b556000600c553480156200002057600080fd5b506040518060400160405280600581526020017f4d794e46540000000000000000000000000000000000000000000000000000008152506040518060400160405280600381526020017f4e46540000000000000000000000000000000000000000000000000000000000815250620000ad620000a16200012660201b60201c565b6200012e60201b60201c565b8160019081620000be91906200046c565b508060029081620000d091906200046c565b5050506000600881905550600a600960003073ffffffffffffffffffffffffffffffffffffffff1673ffffffffffffffffffffffffffffffffffffffff1681526020019081526020016000208190555062000553565b600033905090565b60008060009054906101000a900473ffffffffffffffffffffffffffffffffffffffff169050816000806101000a81548173ffffffffffffffffffffffffffffffffffffffff021916908373ffffffffffffffffffffffffffffffffffffffff1602179055508173ffffffffffffffffffffffffffffffffffffffff168173ffffffffffffffffffffffffffffffffffffffff167f8be0079c531659141344cd1fd0a4f28419497f9722a3daafe3b4186f6b6457e060405160405180910390a35050565b600081519050919050565b7f4e487b7100000000000000000000000000000000000000000000000000000000600052604160045260246000fd5b7f4e487b7100000000000000000000000000000000000000000000000000000000600052602260045260246000fd5b600060028204905060018216806200027457607f821691505b6020821081036200028a57620002896200022c565b5b50919050565b60008190508160005260206000209050919050565b60006020601f8301049050919050565b600082821b905092915050565b600060088302620002f47fffffffffffffffffffffffffffffffffffffffffffffffffffffffffffffffff82620002b5565b620003008683620002b5565b95508019841693508086168417925050509392505050565b6000819050919050565b6000819050919050565b60006200034d62000347620003418462000318565b62000322565b62000318565b9050919050565b6000819050919050565b62000369836200032c565b62000381620003788262000354565b848454620002c2565b825550505050565b600090565b6200039862000389565b620003a58184846200035e565b505050565b5b81811015620003cd57620003c16000826200038e565b600181019050620003ab565b5050565b601f8211156200041c57620003e68162000290565b620003f184620002a5565b8101602085101562000401578190505b620004196200041085620002a5565b830182620003aa565b50505b505050565b600082821c905092915050565b6000620004416000198460080262000421565b1980831691505092915050565b60006200045c83836200042e565b9150826002028217905092915050565b6200047782620001f2565b67ffffffffffffffff811115620004935762000492620001fd565b5b6200049f82546200025b565b620004ac828285620003d1565b600060209050601f831160018114620004e45760008415620004cf578287015190505b620004db85826200044e565b8655506200054b565b601f198416620004f48662000290565b60005b828110156200051e57848901518255600182019150602085019450602081019050620004f7565b868310156200053e57848901516200053a601f8916826200042e565b8355505b6001600288020188555050505b505050505050565b6145f580620005636000396000f3fe608060405234801561001057600080fd5b50600436106101735760003560e01c806375348d8e116100de578063a935e76611610097578063b88d4fde11610071578063b88d4fde1461046c578063c87b56dd14610488578063e985e9c5146104b8578063f2fde38b146104e857610173565b8063a935e766146103fa578063ac1eff6814610418578063b2df73491461044e57610173565b806375348d8e146103305780638da5cb5b1461036857806395d89b411461038657806396680710146103a45780639ea4e7c2146103c2578063a22cb465146103de57610173565b806342842e0e1161013057806342842e0e1461024a57806354ba0f271461026657806357682210146102965780636352211e146102c657806370a08231146102f6578063715018a61461032657610173565b806301ffc9a71461017857806306fdde03146101a8578063081812fc146101c6578063095ea7b3146101f657806323b872dd14610212578063377b99991461022e575b600080fd5b610192600480360381019061018d9190612c20565b610504565b60405161019f9190612c68565b60405180910390f35b6101b06105e6565b6040516101bd9190612d13565b60405180910390f35b6101e060048036038101906101db9190612d6b565b610678565b6040516101ed9190612dd9565b60405180910390f35b610210600480360381019061020b9190612e20565b6106be565b005b61022c60048036038101906102279190612e60565b6107d5565b005b61024860048036038101906102439190612fe8565b610835565b005b610264600480360381019061025f9190612e60565b6109c7565b005b610280600480360381019061027b91906130de565b6109e7565b60405161028d919061311a565b60405180910390f35b6102b060048036038101906102ab91906130de565b610a21565b6040516102bd919061311a565b60405180910390f35b6102e060048036038101906102db9190612d6b565b610a39565b6040516102ed9190612dd9565b60405180910390f35b610310600480360381019061030b91906130de565b610abf565b60405161031d919061311a565b60405180910390f35b61032e610b76565b005b61034a60048036038101906103459190612d6b565b610b8a565b60405161035f99989796959493929190613135565b60405180910390f35b610370610d90565b60405161037d9190612dd9565b60405180910390f35b61038e610db9565b60405161039b9190612d13565b60405180910390f35b6103ac610e4b565b6040516103b9919061311a565b60405180910390f35b6103dc60048036038101906103d791906131d7565b610e92565b005b6103f860048036038101906103f391906132d2565b61103c565b005b610402611052565b60405161040f91906134f5565b60405180910390f35b610432600480360381019061042d9190612d6b565b61134d565b6040516104459796959493929190613517565b60405180910390f35b610456611554565b6040516104639190613730565b60405180910390f35b610486600480360381019061048191906137f3565b611853565b005b6104a2600480360381019061049d9190612d6b565b6118b5565b6040516104af9190612d13565b60405180910390f35b6104d260048036038101906104cd9190613876565b6119c7565b6040516104df9190612c68565b60405180910390f35b61050260048036038101906104fd91906130de565b611a5b565b005b60007f80ac58cd000000000000000000000000000000000000000000000000000000007bffffffffffffffffffffffffffffffffffffffffffffffffffffffff1916827bffffffffffffffffffffffffffffffffffffffffffffffffffffffff191614806105cf57507f5b5e139f000000000000000000000000000000000000000000000000000000007bffffffffffffffffffffffffffffffffffffffffffffffffffffffff1916827bffffffffffffffffffffffffffffffffffffffffffffffffffffffff1916145b806105df57506105de82611ade565b5b9050919050565b6060600180546105f5906138e5565b80601f0160208091040260200160405190810160405280929190818152602001828054610621906138e5565b801561066e5780601f106106435761010080835404028352916020019161066e565b820191906000526020600020905b81548152906001019060200180831161065157829003601f168201915b5050505050905090565b600061068382611b48565b6005600083815260200190815260200160002060009054906101000a900473ffffffffffffffffffffffffffffffffffffffff169050919050565b60006106c982610a39565b90508073ffffffffffffffffffffffffffffffffffffffff168373ffffffffffffffffffffffffffffffffffffffff1603610739576040517f08c379a000000000000000000000000000000000000000000000000000000000815260040161073090613988565b60405180910390fd5b8073ffffffffffffffffffffffffffffffffffffffff16610758611b93565b73ffffffffffffffffffffffffffffffffffffffff161480610787575061078681610781611b93565b6119c7565b5b6107c6576040517f08c379a00000000000000000000000000000000000000000000000000000000081526004016107bd90613a1a565b60405180910390fd5b6107d08383611b9b565b505050565b6107e66107e0611b93565b82611c54565b610825576040517f08c379a000000000000000000000000000000000000000000000000000000000815260040161081c90613aac565b60405180910390fd5b610830838383611ce9565b505050565b600a600081548092919061084890613afb565b9190505550604051806101200160405280888152602001878152602001868152602001600a5481526020018581526020018481526020018381526020018281526020013373ffffffffffffffffffffffffffffffffffffffff16815250600d6000600a54815260200190815260200160002060008201518160000190816108cf9190613cef565b5060208201518160010190816108e59190613cef565b5060408201518160020190816108fb9190613cef565b50606082015181600301556080820151816004015560a0820151816005015560c0820151816006015560e082015181600701556101008201518160080160006101000a81548173ffffffffffffffffffffffffffffffffffffffff021916908373ffffffffffffffffffffffffffffffffffffffff1602179055509050507f318ca470462c99d292ca3790f896cd32a9e7ec14fcb8a2491a7fac6950b90f2887878787878787336040516109b6989796959493929190613dc1565b60405180910390a150505050505050565b6109e283838360405180602001604052806000815250611853565b505050565b60006109f1611fe2565b600160086000828254610a049190613e54565b92505081905550610a1782600854612060565b6008549050919050565b60096020528060005260406000206000915090505481565b600080610a458361227d565b9050600073ffffffffffffffffffffffffffffffffffffffff168173ffffffffffffffffffffffffffffffffffffffff1603610ab6576040517f08c379a0000000000000000000000000000000000000000000000000000000008152600401610aad90613ed4565b60405180910390fd5b80915050919050565b60008073ffffffffffffffffffffffffffffffffffffffff168273ffffffffffffffffffffffffffffffffffffffff1603610b2f576040517f08c379a0000000000000000000000000000000000000000000000000000000008152600401610b2690613f66565b60405180910390fd5b600460008373ffffffffffffffffffffffffffffffffffffffff1673ffffffffffffffffffffffffffffffffffffffff168152602001908152602001600020549050919050565b610b7e611fe2565b610b8860006122ba565b565b600d602052806000526040600020600091509050806000018054610bad906138e5565b80601f0160208091040260200160405190810160405280929190818152602001828054610bd9906138e5565b8015610c265780601f10610bfb57610100808354040283529160200191610c26565b820191906000526020600020905b815481529060010190602001808311610c0957829003601f168201915b505050505090806001018054610c3b906138e5565b80601f0160208091040260200160405190810160405280929190818152602001828054610c67906138e5565b8015610cb45780601f10610c8957610100808354040283529160200191610cb4565b820191906000526020600020905b815481529060010190602001808311610c9757829003601f168201915b505050505090806002018054610cc9906138e5565b80601f0160208091040260200160405190810160405280929190818152602001828054610cf5906138e5565b8015610d425780601f10610d1757610100808354040283529160200191610d42565b820191906000526020600020905b815481529060010190602001808311610d2557829003601f168201915b5050505050908060030154908060040154908060050154908060060154908060070154908060080160009054906101000a900473ffffffffffffffffffffffffffffffffffffffff16905089565b60008060009054906101000a900473ffffffffffffffffffffffffffffffffffffffff16905090565b606060028054610dc8906138e5565b80601f0160208091040260200160405190810160405280929190818152602001828054610df4906138e5565b8015610e415780601f10610e1657610100808354040283529160200191610e41565b820191906000526020600020905b815481529060010190602001808311610e2457829003601f168201915b5050505050905090565b6000600960003073ffffffffffffffffffffffffffffffffffffffff1673ffffffffffffffffffffffffffffffffffffffff16815260200190815260200160002054905090565b600b6000815480929190610ea590613afb565b919050555060001515600e600084815260200190815260200160002060050160149054906101000a900460ff16151514610f14576040517f08c379a0000000000000000000000000000000000000000000000000000000008152600401610f0b90613fd2565b60405180910390fd5b6040518060e001604052808681526020018581526020018481526020018381526020018281526020013373ffffffffffffffffffffffffffffffffffffffff16815260200160011515815250600e6000600b5481526020019081526020016000206000820151816000019081610f8a9190613cef565b506020820151816001019081610fa09190613cef565b506040820151816002019081610fb69190613cef565b50606082015181600301556080820151816004015560a08201518160050160006101000a81548173ffffffffffffffffffffffffffffffffffffffff021916908373ffffffffffffffffffffffffffffffffffffffff16021790555060c08201518160050160146101000a81548160ff0219169083151502179055509050505050505050565b61104e611047611b93565b838361237e565b5050565b60606000600b5467ffffffffffffffff81111561107257611071612ebd565b5b6040519080825280602002602001820160405280156110ab57816020015b611098612afd565b8152602001906001900390816110905790505b50905060005b600b5481101561134557600e60008281526020019081526020016000206040518060e00160405290816000820180546110e9906138e5565b80601f0160208091040260200160405190810160405280929190818152602001828054611115906138e5565b80156111625780601f1061113757610100808354040283529160200191611162565b820191906000526020600020905b81548152906001019060200180831161114557829003601f168201915b5050505050815260200160018201805461117b906138e5565b80601f01602080910402602001604051908101604052809291908181526020018280546111a7906138e5565b80156111f45780601f106111c9576101008083540402835291602001916111f4565b820191906000526020600020905b8154815290600101906020018083116111d757829003601f168201915b5050505050815260200160028201805461120d906138e5565b80601f0160208091040260200160405190810160405280929190818152602001828054611239906138e5565b80156112865780601f1061125b57610100808354040283529160200191611286565b820191906000526020600020905b81548152906001019060200180831161126957829003601f168201915b5050505050815260200160038201548152602001600482015481526020016005820160009054906101000a900473ffffffffffffffffffffffffffffffffffffffff1673ffffffffffffffffffffffffffffffffffffffff1673ffffffffffffffffffffffffffffffffffffffff1681526020016005820160149054906101000a900460ff16151515158152505082828151811061132757611326613ff2565b5b6020026020010181905250808061133d90613afb565b9150506110b1565b508091505090565b600e602052806000526040600020600091509050806000018054611370906138e5565b80601f016020809104026020016040519081016040528092919081815260200182805461139c906138e5565b80156113e95780601f106113be576101008083540402835291602001916113e9565b820191906000526020600020905b8154815290600101906020018083116113cc57829003601f168201915b5050505050908060010180546113fe906138e5565b80601f016020809104026020016040519081016040528092919081815260200182805461142a906138e5565b80156114775780601f1061144c57610100808354040283529160200191611477565b820191906000526020600020905b81548152906001019060200180831161145a57829003601f168201915b50505050509080600201805461148c906138e5565b80601f01602080910402602001604051908101604052809291908181526020018280546114b8906138e5565b80156115055780601f106114da57610100808354040283529160200191611505565b820191906000526020600020905b8154815290600101906020018083116114e857829003601f168201915b5050505050908060030154908060040154908060050160009054906101000a900473ffffffffffffffffffffffffffffffffffffffff16908060050160149054906101000a900460ff16905087565b60606000600b5467ffffffffffffffff81111561157457611573612ebd565b5b6040519080825280602002602001820160405280156115ad57816020015b61159a612b52565b8152602001906001900390816115925790505b50905060005b600a5481101561184b57600d6000828152602001908152602001600020604051806101200160405290816000820180546115ec906138e5565b80601f0160208091040260200160405190810160405280929190818152602001828054611618906138e5565b80156116655780601f1061163a57610100808354040283529160200191611665565b820191906000526020600020905b81548152906001019060200180831161164857829003601f168201915b5050505050815260200160018201805461167e906138e5565b80601f01602080910402602001604051908101604052809291908181526020018280546116aa906138e5565b80156116f75780601f106116cc576101008083540402835291602001916116f7565b820191906000526020600020905b8154815290600101906020018083116116da57829003601f168201915b50505050508152602001600282018054611710906138e5565b80601f016020809104026020016040519081016040528092919081815260200182805461173c906138e5565b80156117895780601f1061175e57610100808354040283529160200191611789565b820191906000526020600020905b81548152906001019060200180831161176c57829003601f168201915b5050505050815260200160038201548152602001600482015481526020016005820154815260200160068201548152602001600782015481526020016008820160009054906101000a900473ffffffffffffffffffffffffffffffffffffffff1673ffffffffffffffffffffffffffffffffffffffff1673ffffffffffffffffffffffffffffffffffffffff168152505082828151811061182d5761182c613ff2565b5b6020026020010181905250808061184390613afb565b9150506115b3565b508091505090565b61186461185e611b93565b83611c54565b6118a3576040517f08c379a000000000000000000000000000000000000000000000000000000000815260040161189a90613aac565b60405180910390fd5b6118af848484846124ea565b50505050565b60606118c082611b48565b60006007600084815260200190815260200160002080546118e0906138e5565b80601f016020809104026020016040519081016040528092919081815260200182805461190c906138e5565b80156119595780601f1061192e57610100808354040283529160200191611959565b820191906000526020600020905b81548152906001019060200180831161193c57829003601f168201915b50505050509050600061196a612546565b9050600081510361197f5781925050506119c2565b6000825111156119b457808260405160200161199c92919061405d565b604051602081830303815290604052925050506119c2565b6119bd8461255d565b925050505b919050565b6000600660008473ffffffffffffffffffffffffffffffffffffffff1673ffffffffffffffffffffffffffffffffffffffff16815260200190815260200160002060008373ffffffffffffffffffffffffffffffffffffffff1673ffffffffffffffffffffffffffffffffffffffff16815260200190815260200160002060009054906101000a900460ff16905092915050565b611a63611fe2565b600073ffffffffffffffffffffffffffffffffffffffff168173ffffffffffffffffffffffffffffffffffffffff1603611ad2576040517f08c379a0000000000000000000000000000000000000000000000000000000008152600401611ac9906140f3565b60405180910390fd5b611adb816122ba565b50565b60007f01ffc9a7000000000000000000000000000000000000000000000000000000007bffffffffffffffffffffffffffffffffffffffffffffffffffffffff1916827bffffffffffffffffffffffffffffffffffffffffffffffffffffffff1916149050919050565b611b51816125c5565b611b90576040517f08c379a0000000000000000000000000000000000000000000000000000000008152600401611b8790613ed4565b60405180910390fd5b50565b600033905090565b816005600083815260200190815260200160002060006101000a81548173ffffffffffffffffffffffffffffffffffffffff021916908373ffffffffffffffffffffffffffffffffffffffff160217905550808273ffffffffffffffffffffffffffffffffffffffff16611c0e83610a39565b73ffffffffffffffffffffffffffffffffffffffff167f8c5be1e5ebec7d5bd14f71427d1e84f3dd0314c0f7b2291e5b200ac8c7c3b92560405160405180910390a45050565b600080611c6083610a39565b90508073ffffffffffffffffffffffffffffffffffffffff168473ffffffffffffffffffffffffffffffffffffffff161480611ca25750611ca181856119c7565b5b80611ce057508373ffffffffffffffffffffffffffffffffffffffff16611cc884610678565b73ffffffffffffffffffffffffffffffffffffffff16145b91505092915050565b8273ffffffffffffffffffffffffffffffffffffffff16611d0982610a39565b73ffffffffffffffffffffffffffffffffffffffff1614611d5f576040517f08c379a0000000000000000000000000000000000000000000000000000000008152600401611d5690614185565b60405180910390fd5b600073ffffffffffffffffffffffffffffffffffffffff168273ffffffffffffffffffffffffffffffffffffffff1603611dce576040517f08c379a0000000000000000000000000000000000000000000000000000000008152600401611dc590614217565b60405180910390fd5b611ddb8383836001612606565b8273ffffffffffffffffffffffffffffffffffffffff16611dfb82610a39565b73ffffffffffffffffffffffffffffffffffffffff1614611e51576040517f08c379a0000000000000000000000000000000000000000000000000000000008152600401611e4890614185565b60405180910390fd5b6005600082815260200190815260200160002060006101000a81549073ffffffffffffffffffffffffffffffffffffffff02191690556001600460008573ffffffffffffffffffffffffffffffffffffffff1673ffffffffffffffffffffffffffffffffffffffff168152602001908152602001600020600082825403925050819055506001600460008473ffffffffffffffffffffffffffffffffffffffff1673ffffffffffffffffffffffffffffffffffffffff16815260200190815260200160002060008282540192505081905550816003600083815260200190815260200160002060006101000a81548173ffffffffffffffffffffffffffffffffffffffff021916908373ffffffffffffffffffffffffffffffffffffffff160217905550808273ffffffffffffffffffffffffffffffffffffffff168473ffffffffffffffffffffffffffffffffffffffff167fddf252ad1be2c89b69c2b068fc378daa952ba7f163c4a11628f55a4df523b3ef60405160405180910390a4611fdd838383600161272c565b505050565b611fea611b93565b73ffffffffffffffffffffffffffffffffffffffff16612008610d90565b73ffffffffffffffffffffffffffffffffffffffff161461205e576040517f08c379a000000000000000000000000000000000000000000000000000000000815260040161205590614283565b60405180910390fd5b565b600073ffffffffffffffffffffffffffffffffffffffff168273ffffffffffffffffffffffffffffffffffffffff16036120cf576040517f08c379a00000000000000000000000000000000000000000000000000000000081526004016120c6906142ef565b60405180910390fd5b6120d8816125c5565b15612118576040517f08c379a000000000000000000000000000000000000000000000000000000000815260040161210f9061435b565b60405180910390fd5b612126600083836001612606565b61212f816125c5565b1561216f576040517f08c379a00000000000000000000000000000000000000000000000000000000081526004016121669061435b565b60405180910390fd5b6001600460008473ffffffffffffffffffffffffffffffffffffffff1673ffffffffffffffffffffffffffffffffffffffff16815260200190815260200160002060008282540192505081905550816003600083815260200190815260200160002060006101000a81548173ffffffffffffffffffffffffffffffffffffffff021916908373ffffffffffffffffffffffffffffffffffffffff160217905550808273ffffffffffffffffffffffffffffffffffffffff16600073ffffffffffffffffffffffffffffffffffffffff167fddf252ad1be2c89b69c2b068fc378daa952ba7f163c4a11628f55a4df523b3ef60405160405180910390a461227960008383600161272c565b5050565b60006003600083815260200190815260200160002060009054906101000a900473ffffffffffffffffffffffffffffffffffffffff169050919050565b60008060009054906101000a900473ffffffffffffffffffffffffffffffffffffffff169050816000806101000a81548173ffffffffffffffffffffffffffffffffffffffff021916908373ffffffffffffffffffffffffffffffffffffffff1602179055508173ffffffffffffffffffffffffffffffffffffffff168173ffffffffffffffffffffffffffffffffffffffff167f8be0079c531659141344cd1fd0a4f28419497f9722a3daafe3b4186f6b6457e060405160405180910390a35050565b8173ffffffffffffffffffffffffffffffffffffffff168373ffffffffffffffffffffffffffffffffffffffff16036123ec576040517f08c379a00000000000000000000000000000000000000000000000000000000081526004016123e3906143c7565b60405180910390fd5b80600660008573ffffffffffffffffffffffffffffffffffffffff1673ffffffffffffffffffffffffffffffffffffffff16815260200190815260200160002060008473ffffffffffffffffffffffffffffffffffffffff1673ffffffffffffffffffffffffffffffffffffffff16815260200190815260200160002060006101000a81548160ff0219169083151502179055508173ffffffffffffffffffffffffffffffffffffffff168373ffffffffffffffffffffffffffffffffffffffff167f17307eab39ab6107e8899845ad3d59bd9653f200f220920489ca2b5937696c31836040516124dd9190612c68565b60405180910390a3505050565b6124f5848484611ce9565b61250184848484612732565b612540576040517f08c379a000000000000000000000000000000000000000000000000000000000815260040161253790614459565b60405180910390fd5b50505050565b606060405180602001604052806000815250905090565b606061256882611b48565b6000612572612546565b9050600081511161259257604051806020016040528060008152506125bd565b8061259c846128b9565b6040516020016125ad92919061405d565b6040516020818303038152906040525b915050919050565b60008073ffffffffffffffffffffffffffffffffffffffff166125e78361227d565b73ffffffffffffffffffffffffffffffffffffffff1614159050919050565b600181111561272657600073ffffffffffffffffffffffffffffffffffffffff168473ffffffffffffffffffffffffffffffffffffffff161461269a5780600460008673ffffffffffffffffffffffffffffffffffffffff1673ffffffffffffffffffffffffffffffffffffffff16815260200190815260200160002060008282546126929190614479565b925050819055505b600073ffffffffffffffffffffffffffffffffffffffff168373ffffffffffffffffffffffffffffffffffffffff16146127255780600460008573ffffffffffffffffffffffffffffffffffffffff1673ffffffffffffffffffffffffffffffffffffffff168152602001908152602001600020600082825461271d9190613e54565b925050819055505b5b50505050565b50505050565b60006127538473ffffffffffffffffffffffffffffffffffffffff16612987565b156128ac578373ffffffffffffffffffffffffffffffffffffffff1663150b7a0261277c611b93565b8786866040518563ffffffff1660e01b815260040161279e9493929190614502565b6020604051808303816000875af19250505080156127da57506040513d601f19601f820116820180604052508101906127d79190614563565b60015b61285c573d806000811461280a576040519150601f19603f3d011682016040523d82523d6000602084013e61280f565b606091505b506000815103612854576040517f08c379a000000000000000000000000000000000000000000000000000000000815260040161284b90614459565b60405180910390fd5b805181602001fd5b63150b7a0260e01b7bffffffffffffffffffffffffffffffffffffffffffffffffffffffff1916817bffffffffffffffffffffffffffffffffffffffffffffffffffffffff1916149150506128b1565b600190505b949350505050565b6060600060016128c8846129aa565b01905060008167ffffffffffffffff8111156128e7576128e6612ebd565b5b6040519080825280601f01601f1916602001820160405280156129195781602001600182028036833780820191505090505b509050600082602001820190505b60011561297c578080600190039150507f3031323334353637383961626364656600000000000000000000000000000000600a86061a8153600a85816129705761296f614590565b5b04945060008503612927575b819350505050919050565b6000808273ffffffffffffffffffffffffffffffffffffffff163b119050919050565b600080600090507a184f03e93ff9f4daa797ed6e38ed64bf6a1f0100000000000000008310612a08577a184f03e93ff9f4daa797ed6e38ed64bf6a1f01000000000000000083816129fe576129fd614590565b5b0492506040810190505b6d04ee2d6d415b85acef81000000008310612a45576d04ee2d6d415b85acef81000000008381612a3b57612a3a614590565b5b0492506020810190505b662386f26fc100008310612a7457662386f26fc100008381612a6a57612a69614590565b5b0492506010810190505b6305f5e1008310612a9d576305f5e1008381612a9357612a92614590565b5b0492506008810190505b6127108310612ac2576127108381612ab857612ab7614590565b5b0492506004810190505b60648310612ae55760648381612adb57612ada614590565b5b0492506002810190505b600a8310612af4576001810190505b80915050919050565b6040518060e001604052806060815260200160608152602001606081526020016000815260200160008152602001600073ffffffffffffffffffffffffffffffffffffffff1681526020016000151581525090565b6040518061012001604052806060815260200160608152602001606081526020016000815260200160008152602001600081526020016000815260200160008152602001600073ffffffffffffffffffffffffffffffffffffffff1681525090565b6000604051905090565b600080fd5b600080fd5b60007fffffffff0000000000000000000000000000000000000000000000000000000082169050919050565b612bfd81612bc8565b8114612c0857600080fd5b50565b600081359050612c1a81612bf4565b92915050565b600060208284031215612c3657612c35612bbe565b5b6000612c4484828501612c0b565b91505092915050565b60008115159050919050565b612c6281612c4d565b82525050565b6000602082019050612c7d6000830184612c59565b92915050565b600081519050919050565b600082825260208201905092915050565b60005b83811015612cbd578082015181840152602081019050612ca2565b60008484015250505050565b6000601f19601f8301169050919050565b6000612ce582612c83565b612cef8185612c8e565b9350612cff818560208601612c9f565b612d0881612cc9565b840191505092915050565b60006020820190508181036000830152612d2d8184612cda565b905092915050565b6000819050919050565b612d4881612d35565b8114612d5357600080fd5b50565b600081359050612d6581612d3f565b92915050565b600060208284031215612d8157612d80612bbe565b5b6000612d8f84828501612d56565b91505092915050565b600073ffffffffffffffffffffffffffffffffffffffff82169050919050565b6000612dc382612d98565b9050919050565b612dd381612db8565b82525050565b6000602082019050612dee6000830184612dca565b92915050565b612dfd81612db8565b8114612e0857600080fd5b50565b600081359050612e1a81612df4565b92915050565b60008060408385031215612e3757612e36612bbe565b5b6000612e4585828601612e0b565b9250506020612e5685828601612d56565b9150509250929050565b600080600060608486031215612e7957612e78612bbe565b5b6000612e8786828701612e0b565b9350506020612e9886828701612e0b565b9250506040612ea986828701612d56565b9150509250925092565b600080fd5b600080fd5b7f4e487b7100000000000000000000000000000000000000000000000000000000600052604160045260246000fd5b612ef582612cc9565b810181811067ffffffffffffffff82111715612f1457612f13612ebd565b5b80604052505050565b6000612f27612bb4565b9050612f338282612eec565b919050565b600067ffffffffffffffff821115612f5357612f52612ebd565b5b612f5c82612cc9565b9050602081019050919050565b82818337600083830152505050565b6000612f8b612f8684612f38565b612f1d565b905082815260208101848484011115612fa757612fa6612eb8565b5b612fb2848285612f69565b509392505050565b600082601f830112612fcf57612fce612eb3565b5b8135612fdf848260208601612f78565b91505092915050565b600080600080600080600060e0888a03121561300757613006612bbe565b5b600088013567ffffffffffffffff81111561302557613024612bc3565b5b6130318a828b01612fba565b975050602088013567ffffffffffffffff81111561305257613051612bc3565b5b61305e8a828b01612fba565b965050604088013567ffffffffffffffff81111561307f5761307e612bc3565b5b61308b8a828b01612fba565b955050606061309c8a828b01612d56565b94505060806130ad8a828b01612d56565b93505060a06130be8a828b01612d56565b92505060c06130cf8a828b01612d56565b91505092959891949750929550565b6000602082840312156130f4576130f3612bbe565b5b600061310284828501612e0b565b91505092915050565b61311481612d35565b82525050565b600060208201905061312f600083018461310b565b92915050565b6000610120820190508181036000830152613150818c612cda565b90508181036020830152613164818b612cda565b90508181036040830152613178818a612cda565b9050613187606083018961310b565b613194608083018861310b565b6131a160a083018761310b565b6131ae60c083018661310b565b6131bb60e083018561310b565b6131c9610100830184612dca565b9a9950505050505050505050565b600080600080600060a086880312156131f3576131f2612bbe565b5b600086013567ffffffffffffffff81111561321157613210612bc3565b5b61321d88828901612fba565b955050602086013567ffffffffffffffff81111561323e5761323d612bc3565b5b61324a88828901612fba565b945050604086013567ffffffffffffffff81111561326b5761326a612bc3565b5b61327788828901612fba565b935050606061328888828901612d56565b925050608061329988828901612d56565b9150509295509295909350565b6132af81612c4d565b81146132ba57600080fd5b50565b6000813590506132cc816132a6565b92915050565b600080604083850312156132e9576132e8612bbe565b5b60006132f785828601612e0b565b9250506020613308858286016132bd565b9150509250929050565b600081519050919050565b600082825260208201905092915050565b6000819050602082019050919050565b600082825260208201905092915050565b600061335a82612c83565b613364818561333e565b9350613374818560208601612c9f565b61337d81612cc9565b840191505092915050565b61339181612d35565b82525050565b6133a081612db8565b82525050565b6133af81612c4d565b82525050565b600060e08301600083015184820360008601526133d2828261334f565b915050602083015184820360208601526133ec828261334f565b91505060408301518482036040860152613406828261334f565b915050606083015161341b6060860182613388565b50608083015161342e6080860182613388565b5060a083015161344160a0860182613397565b5060c083015161345460c08601826133a6565b508091505092915050565b600061346b83836133b5565b905092915050565b6000602082019050919050565b600061348b82613312565b613495818561331d565b9350836020820285016134a78561332e565b8060005b858110156134e357848403895281516134c4858261345f565b94506134cf83613473565b925060208a019950506001810190506134ab565b50829750879550505050505092915050565b6000602082019050818103600083015261350f8184613480565b905092915050565b600060e0820190508181036000830152613531818a612cda565b905081810360208301526135458189612cda565b905081810360408301526135598188612cda565b9050613568606083018761310b565b613575608083018661310b565b61358260a0830185612dca565b61358f60c0830184612c59565b98975050505050505050565b600081519050919050565b600082825260208201905092915050565b6000819050602082019050919050565b60006101208301600083015184820360008601526135e5828261334f565b915050602083015184820360208601526135ff828261334f565b91505060408301518482036040860152613619828261334f565b915050606083015161362e6060860182613388565b5060808301516136416080860182613388565b5060a083015161365460a0860182613388565b5060c083015161366760c0860182613388565b5060e083015161367a60e0860182613388565b5061010083015161368f610100860182613397565b508091505092915050565b60006136a683836135c7565b905092915050565b6000602082019050919050565b60006136c68261359b565b6136d081856135a6565b9350836020820285016136e2856135b7565b8060005b8581101561371e57848403895281516136ff858261369a565b945061370a836136ae565b925060208a019950506001810190506136e6565b50829750879550505050505092915050565b6000602082019050818103600083015261374a81846136bb565b905092915050565b600067ffffffffffffffff82111561376d5761376c612ebd565b5b61377682612cc9565b9050602081019050919050565b600061379661379184613752565b612f1d565b9050828152602081018484840111156137b2576137b1612eb8565b5b6137bd848285612f69565b509392505050565b600082601f8301126137da576137d9612eb3565b5b81356137ea848260208601613783565b91505092915050565b6000806000806080858703121561380d5761380c612bbe565b5b600061381b87828801612e0b565b945050602061382c87828801612e0b565b935050604061383d87828801612d56565b925050606085013567ffffffffffffffff81111561385e5761385d612bc3565b5b61386a878288016137c5565b91505092959194509250565b6000806040838503121561388d5761388c612bbe565b5b600061389b85828601612e0b565b92505060206138ac85828601612e0b565b9150509250929050565b7f4e487b7100000000000000000000000000000000000000000000000000000000600052602260045260246000fd5b600060028204905060018216806138fd57607f821691505b6020821081036139105761390f6138b6565b5b50919050565b7f4552433732313a20617070726f76616c20746f2063757272656e74206f776e6560008201527f7200000000000000000000000000000000000000000000000000000000000000602082015250565b6000613972602183612c8e565b915061397d82613916565b604082019050919050565b600060208201905081810360008301526139a181613965565b9050919050565b7f4552433732313a20617070726f76652063616c6c6572206973206e6f7420746f60008201527f6b656e206f776e6572206f7220617070726f76656420666f7220616c6c000000602082015250565b6000613a04603d83612c8e565b9150613a0f826139a8565b604082019050919050565b60006020820190508181036000830152613a33816139f7565b9050919050565b7f4552433732313a2063616c6c6572206973206e6f7420746f6b656e206f776e6560008201527f72206f7220617070726f76656400000000000000000000000000000000000000602082015250565b6000613a96602d83612c8e565b9150613aa182613a3a565b604082019050919050565b60006020820190508181036000830152613ac581613a89565b9050919050565b7f4e487b7100000000000000000000000000000000000000000000000000000000600052601160045260246000fd5b6000613b0682612d35565b91507fffffffffffffffffffffffffffffffffffffffffffffffffffffffffffffffff8203613b3857613b37613acc565b5b600182019050919050565b60008190508160005260206000209050919050565b60006020601f8301049050919050565b600082821b905092915050565b600060088302613ba57fffffffffffffffffffffffffffffffffffffffffffffffffffffffffffffffff82613b68565b613baf8683613b68565b95508019841693508086168417925050509392505050565b6000819050919050565b6000613bec613be7613be284612d35565b613bc7565b612d35565b9050919050565b6000819050919050565b613c0683613bd1565b613c1a613c1282613bf3565b848454613b75565b825550505050565b600090565b613c2f613c22565b613c3a818484613bfd565b505050565b5b81811015613c5e57613c53600082613c27565b600181019050613c40565b5050565b601f821115613ca357613c7481613b43565b613c7d84613b58565b81016020851015613c8c578190505b613ca0613c9885613b58565b830182613c3f565b50505b505050565b600082821c905092915050565b6000613cc660001984600802613ca8565b1980831691505092915050565b6000613cdf8383613cb5565b9150826002028217905092915050565b613cf882612c83565b67ffffffffffffffff811115613d1157613d10612ebd565b5b613d1b82546138e5565b613d26828285613c62565b600060209050601f831160018114613d595760008415613d47578287015190505b613d518582613cd3565b865550613db9565b601f198416613d6786613b43565b60005b82811015613d8f57848901518255600182019150602085019450602081019050613d6a565b86831015613dac5784890151613da8601f891682613cb5565b8355505b6001600288020188555050505b505050505050565b6000610100820190508181036000830152613ddc818b612cda565b90508181036020830152613df0818a612cda565b90508181036040830152613e048189612cda565b9050613e13606083018861310b565b613e20608083018761310b565b613e2d60a083018661310b565b613e3a60c083018561310b565b613e4760e0830184612dca565b9998505050505050505050565b6000613e5f82612d35565b9150613e6a83612d35565b9250828201905080821115613e8257613e81613acc565b5b92915050565b7f4552433732313a20696e76616c696420746f6b656e2049440000000000000000600082015250565b6000613ebe601883612c8e565b9150613ec982613e88565b602082019050919050565b60006020820190508181036000830152613eed81613eb1565b9050919050565b7f4552433732313a2061646472657373207a65726f206973206e6f74206120766160008201527f6c6964206f776e65720000000000000000000000000000000000000000000000602082015250565b6000613f50602983612c8e565b9150613f5b82613ef4565b604082019050919050565b60006020820190508181036000830152613f7f81613f43565b9050919050565b7f76616c696461746f7220616c7265616479207265676973746572656400000000600082015250565b6000613fbc601c83612c8e565b9150613fc782613f86565b602082019050919050565b60006020820190508181036000830152613feb81613faf565b9050919050565b7f4e487b7100000000000000000000000000000000000000000000000000000000600052603260045260246000fd5b600081905092915050565b600061403782612c83565b6140418185614021565b9350614051818560208601612c9f565b80840191505092915050565b6000614069828561402c565b9150614075828461402c565b91508190509392505050565b7f4f776e61626c653a206e6577206f776e657220697320746865207a65726f206160008201527f6464726573730000000000000000000000000000000000000000000000000000602082015250565b60006140dd602683612c8e565b91506140e882614081565b604082019050919050565b6000602082019050818103600083015261410c816140d0565b9050919050565b7f4552433732313a207472616e736665722066726f6d20696e636f72726563742060008201527f6f776e6572000000000000000000000000000000000000000000000000000000602082015250565b600061416f602583612c8e565b915061417a82614113565b604082019050919050565b6000602082019050818103600083015261419e81614162565b9050919050565b7f4552433732313a207472616e7366657220746f20746865207a65726f2061646460008201527f7265737300000000000000000000000000000000000000000000000000000000602082015250565b6000614201602483612c8e565b915061420c826141a5565b604082019050919050565b60006020820190508181036000830152614230816141f4565b9050919050565b7f4f776e61626c653a2063616c6c6572206973206e6f7420746865206f776e6572600082015250565b600061426d602083612c8e565b915061427882614237565b602082019050919050565b6000602082019050818103600083015261429c81614260565b9050919050565b7f4552433732313a206d696e7420746f20746865207a65726f2061646472657373600082015250565b60006142d9602083612c8e565b91506142e4826142a3565b602082019050919050565b60006020820190508181036000830152614308816142cc565b9050919050565b7f4552433732313a20746f6b656e20616c7265616479206d696e74656400000000600082015250565b6000614345601c83612c8e565b91506143508261430f565b602082019050919050565b6000602082019050818103600083015261437481614338565b9050919050565b7f4552433732313a20617070726f766520746f2063616c6c657200000000000000600082015250565b60006143b1601983612c8e565b91506143bc8261437b565b602082019050919050565b600060208201905081810360008301526143e0816143a4565b9050919050565b7f4552433732313a207472616e7366657220746f206e6f6e20455243373231526560008201527f63656976657220696d706c656d656e7465720000000000000000000000000000602082015250565b6000614443603283612c8e565b915061444e826143e7565b604082019050919050565b6000602082019050818103600083015261447281614436565b9050919050565b600061448482612d35565b915061448f83612d35565b92508282039050818111156144a7576144a6613acc565b5b92915050565b600081519050919050565b600082825260208201905092915050565b60006144d4826144ad565b6144de81856144b8565b93506144ee818560208601612c9f565b6144f781612cc9565b840191505092915050565b60006080820190506145176000830187612dca565b6145246020830186612dca565b614531604083018561310b565b818103606083015261454381846144c9565b905095945050505050565b60008151905061455d81612bf4565b92915050565b60006020828403121561457957614578612bbe565b5b60006145878482850161454e565b91505092915050565b7f4e487b7100000000000000000000000000000000000000000000000000000000600052601260045260246000fdfea2646970667358221220548c272dd376418da443258d8c55c4905b858b01e8354275f455ca2af774ec9d64736f6c63430008110033",
  "linkReferences": {},
  "deployedLinkReferences": {}
}